:020000040800F2
:100000008081002045010008A506000807060008B9
:10001000A1060008D1030008E70E00080000000058
:10002000000000000000000000000000330800088D
:10003000D503000800000000A7060008DD0900083D
:100040005F0100085F0100085F0100085F01000810
:100050005F0100085F0100085F0100085F01000800
:100060005F0100085F0100085F0100085F010008F0
:100070005F0100085F0100085F0100085F010008E0
:100080005F0100085F0100085F0100085F010008D0
:100090005F0100085F0100085F0100085F010008C0
:1000A0005F0100085F0100085F0100085F010008B0
:1000B0005F0100085F0100085F0100085F010008A0
:1000C0005F0100085F0100085F0100085F01000890
:1000D0005F0100085F0100085F0100085F01000880
:1000E0005F0100085F0100085F0100085F01000870
:1000F0005F0100085F0100085F0100085F01000860
:100100005F0100085F0100085F0100085F0100084F
:100110005F0100085F0100085F0100085F0100083F
:100120005F0100085F0100085F0100085F0100082F
:10013000DFF80CD000F08EF800480047B513000837
:10014000808100200648804706480047FEE7FEE71A
:10015000FEE7FEE7FEE7FEE7FEE7FEE7FEE7FEE777
:100160000D0A00083101000870B5064600F0CEFE09
:10017000046805460A220021304600F033F82C605E
:1001800070BD2DE9F05F0546002092469B468846EB
:100190000646814640241BE0284641464746224603
:1001A00000F079F853465A46C01A914110D31146CF
:1001B0001846224600F060F82D1A67EB01084F46FA
:1001C00022460120002100F057F817EB00094E41AC
:1001D000201EA4F10104DFDC484631462A4643468E
:1001E000BDE8F09F2DE9F04791460F468046044652
:1001F000002614F8015B2DB100F05EF80068405D48
:10020000C007F6D12B2D02D02D2D18D0641E4A46E2
:100210003946204600F054F827B13968A14201D18F
:10022000C7F8008071054FF002040BD5404200284A
:1002300003DD00F06BFE0460A007BDE8F08746F424
:100240008066E4E70028F8DA00F060FE04606FF0F2
:100250000040F2E7064C074D06E0E06840F001037D
:1002600094E8070098471034AC42F6D3FFF764FFD8
:10027000BC190008DC190008202A04DB203A00FA27
:1002800002F1002070479140C2F1200320FA03F3ED
:10029000194390407047202A04DB203A21FA02F0EB
:1002A0000021704721FA02F3D040C2F120029140B0
:1002B000084319467047000000487047B819000805
:1002C0002DE9F05F82460078002715468B460AF13B
:1002D0000104B946302801D09DB113E014F8010B98
:1002E0000127782803D0582801D045B10AE00DB184
:1002F000102D07D10027102514F8010B02E0082566
:1003000000E00A250026B0460EE005FB080005FBCC
:1003100006F1012701EB10461FFA80F8B6F5803F81
:1003200000D3B94614F8010B294600F018F800284C
:10033000EBDABBF1000F05D00FB1641E00E05446AC
:10034000CBF80040B9F1000F06D000F0DFFD02212C
:100350000160C81EBDE8F09F48EA0640FAE73A2867
:1003600000D2303820F02002412A01D3A2F1370018
:10037000884201D34FF0FF30704770B58C1810F8E9
:10038000015B15F0070301D110F8013B2A1106D1DA
:1003900010F8012B03E010F8016B01F8016B5B1EF4
:1003A000F9D12B0705D40023521E0DD401F8013BCF
:1003B000FAE710F8013BCB1A921C03E013F8015B3B
:1003C00001F8015B521EF9D5A142D8D3002070BDBF
:1003D00000BFFEE7704700E0401E0028FCD17047D8
:1003E000F8B5002601270024002537E001F04CF87D
:1003F0001E4800681E49096888422FDB00201D49FD
:1004000008601D480068FF2804D1002017490860D3
:100410001A4908601A48006880280DD16846FFF71D
:10042000A3FE06463C2E06DD16A000F05FFD012768
:100430000020009000E000271149086801F044FA0C
:100440000546302D08DB392D06DCE8B20DF8040036
:10045000641C032C00D1002400F0F8FE002FC5D14D
:100460006846FFF781FE06463046F8BD580000207A
:10047000600000205C00002008030020A400002091
:10048000AC0700200D0A204F766572204D61782060
:100490006C696E652021210D0A00000010B504462C
:1004A00000BF0221064800F098F90028F9D0214643
:1004B000034800F09EF9024800F098F9C0B210BD60
:1004C0000030014008B50121082000F0FDF80120AE
:1004D000ADF8000000208DF803006946014800F0E7
:1004E00003F808BD000C01402DE9F041024600254B
:1004F0000026002000230024002791F803C00CF000
:100500000F0591F803C00CF0100CBCF1000F03D0E4
:1005100091F802C04CEA050591F800C0BCF1000F4B
:1005200031D0146800202BE04FF0010C0CFA00F3DE
:10053000B1F800C00CEA03069E4220D183004FF0C0
:100540000F0C0CFA03F7BC4305FA03FC4CEA040455
:1005500091F803C0BCF1280F06D14FF0010C0CFA42
:1005600000FCC2F814C00AE091F803C0BCF1480FC7
:1005700005D14FF0010C0CFA00FCC2F810C0401C71
:100580000828D1D31460B1F800C0BCF1FF0F34DDEE
:10059000546800202EE000F1080C4FF0010808FA22
:1005A0000CF3B1F800C00CEA03069E4221D183008F
:1005B0004FF00F0C0CFA03F7BC4305FA03FC4CEAAE
:1005C000040491F803C0BCF1280F05D100F1080C18
:1005D00008FA0CF8C2F8148091F803C0BCF1480F77
:1005E00007D100F1080C4FF0010808FA0CF8C2F826
:1005F0001080401C0828CED35460BDE8F0814161D2
:1006000070470161704700BFFEE7000008B5012197
:10061000080300F059F80121042000F055F80121E9
:10062000202000F051F8E020ADF8000018208DF8EF
:10063000030003208DF8020069461648FFF754FFB7
:100640001020ADF800008DF8030001208DF80200A5
:1006500069461148FFF748FF1020ADF800008DF8FB
:10066000030003208DF8020069460A48FFF73CFFAB
:1006700010210848FFF7C5FF10210748FFF7C1FF09
:100680000121064800F09AF80221044800F0A2F87F
:1006900008BD000000080140001401400030014086
:1006A00000BFFEE77047704729B1064AD26902438E
:1006B000044BDA6104E0034AD2698243014BDA61F8
:1006C000704700000010024029B1064A92690243B7
:1006D000044B9A6104E0034A92698243014B9A6198
:1006E000704700000010024030B5002100220024B5
:1006F00000232D4D6D6805F00C0121B1042905D0B2
:10070000082923D105E0294D056022E0274D056029
:100710001FE0254D6D6805F47012234D6D6805F4DA
:100720008034022505EB92421CB9214D55430560EA
:100730000BE01D4D6D6805F400351DB11C4D554392
:10074000056002E0194D5543056002E0174D056054
:1007500000BF00BF144D6D6805F0F0010909154D8B
:100760006B5C0568DD4045600F4D6D6805F4E06128
:10077000090A104D6B5C4568DD4085600A4D6D6867
:1007800005F46051C90A0B4D6B5C4568DD40C560DE
:10079000054D6D6805F44041890B074D6B5CC568DC
:1007A000B5FBF3F5056130BD0010024000127A0080
:1007B00000093D00CD060020DD06002021B10288A1
:1007C00042F04002028004E002884FF6BF731A40F4
:1007D00002807047CA430281704702460020138995
:1007E0000B400BB1012000E00020704701468889D2
:1007F00070478181704710B50022028802F441528F
:100800000B884C8823438C882343CC8823430C8952
:1008100023434C8923438C892343CC8923431A43A4
:100820000280838B4FF2FF74234083830B8A038201
:1008300010BD704770B504460D4600260EE03046E8
:10084000761C34F8200081B2064800F048FB00BF57
:100850004021044800F075FA0028F9D0B6EB950F56
:10086000EDD370BD0048004010B500F001F810BD98
:100870000CB50020019000903348006840F48030AF
:100880003149086000BF3048006800F40030009033
:100890000198401C0190009818B90198B0F5A06F1C
:1008A000F1D12948006800F4003010B10120009017
:1008B00001E0002000900098012843D123480068FF
:1008C00040F01000214908600846006820F003004D
:1008D00008600846006840F0020008601A48406856
:1008E000194948600846406848600846406840F436
:1008F000806048600846406820F47C1048600846E4
:10090000406840F4E81048600846006840F0807095
:10091000086000BF0C48006800F000700028F9D0A3
:100920000948406820F003000749486008464068CD
:1009300040F00200486000BF0348406800F00C002F
:100940000828F9D10CBD0000001002400020024030
:10095000042808D14FF0E021096941F004014FF06B
:10096000E022116107E04FF0E021096921F0040164
:100970004FF0E02211617047012808D14FF0E021CB
:10098000096941F001014FF0E02211610EE0811C84
:1009900041B94FF0E021096921F001014FF0E02257
:1009A000116103E000214FF0E0229161704710B522
:1009B0000146002200230020CB10022B03D14FF070
:1009C000E024226902E04FF0E024E26901248C4037
:1009D00014400CB1012000E0002010BD704740B170
:1009E0004FF0E021096941F002014FF0E02211616E
:1009F00007E04FF0E021096921F002014FF0E02209
:100A0000116170474FF0E0214861704710B51348FD
:100A1000006840F00100114908600846406810492C
:100A200008400E494860084600680E4908400B49D6
:100A300008600846006820F4802008600846406886
:100A400020F4FE0048604FF41F008860FFF70CFFA1
:100A50004FF000600449086010BD00000010024023
:100A60000000FFF8FFFFF6FE08ED00E000B585B0DE
:100A700001211020FFF728FE0121C804FFF714FE12
:100A80000120ADF8100003208DF8120010208DF821
:100A9000130004A92348FFF727FD4FF48060ADF849
:100AA000100018208DF8130003208DF8120004A9FF
:100AB0001C48FFF719FD4FF40060ADF8100004204A
:100AC0008DF8130003208DF8120004A91548FFF7D4
:100AD0000BFD4FF4165000900020ADF80400ADF867
:100AE0000600ADF80800ADF80C000C20ADF80A00C7
:100AF00069460D4800F082F9012240F225510A486A
:100B000000F056F9012240F22771074800F050F931
:100B10004021054800F000F90121034800F005F9E3
:100B200005B000BD00100140004C004000B585B08C
:100B3000012144F20400FFF7C7FD4FF40070ADF847
:100B4000100018208DF8130003208DF8120004A95E
:100B50001C48FFF7C9FC4FF48060ADF8100004207A
:100B60008DF8130003208DF8120004A91548FFF733
:100B7000BBFC4FF4E13000900020ADF80400ADF86C
:100B80000600ADF80800ADF80C000C20ADF80A0026
:100B900069460D4800F032F9012240F225510A4819
:100BA00000F006F9012240F22771074800F000F931
:100BB0004021054800F0B0F80121034800F0B5F8E5
:100BC00005B000BD000801400038014000B585B007
:100BD00001210420FFF778FD01214804FFF764FD9F
:100BE0000420ADF8100018208DF8130003208DF8B4
:100BF000120004A91C48FFF777FC0820ADF810008C
:100C000004208DF8130003208DF8120004A9164863
:100C1000FFF76AFC4FF4E13000900020ADF80400CB
:100C2000ADF80600ADF80800ADF80C000C20ADF8EA
:100C30000A0069460D4800F0E1F8012240F2255112
:100C40000A4800F0B5F8012240F22771074800F089
:100C5000AFF84021054800F05FF80121034800F09B
:100C600064F805B000BD00000008014000440040E9
:100C700000B585B001210820FFF726FD0121880479
:100C8000FFF712FD4FF48060ADF8100018208DF8CA
:100C9000130003208DF8120004A91D48FFF724FC5F
:100CA0004FF40060ADF8100004208DF8130003200D
:100CB0008DF8120004A91648FFF716FC4FF4E13036
:100CC00000900020ADF80400ADF80600ADF8080073
:100CD000ADF80C000C20ADF80A0069460D4800F094
:100CE0008DF8012240F225510A4800F061F80122F6
:100CF00040F22771074800F05BF84021054800F0FA
:100D00000BF80121034800F010F805B000BD000009
:100D1000000C01400048004001F40072B2F5007F71
:100D200000D100BFCA430280704721B1828942F4DA
:100D30000052828104E082894DF6FF731A4082815D
:100D4000704702460020B1F5007F00D100BF138834
:100D50000B400BB1012000E00020704770B5024647
:100D6000002400230025002040F66A16B14200D17D
:100D700000BFC1F3421501F01F03012606FA03F379
:100D8000012D02D19689334006E0022D02D1168A48
:100D9000334001E0968A33400C12012606FA04F42F
:100DA0001688344013B10CB1012000E0002070BD62
:100DB000F0B50346002400260025002040F66A17FF
:100DC000B94200D100BF1846C1F3421401F01F061A
:100DD000012707FA06F5012C01D10C3004E0022CA2
:100DE00001D1103000E014301AB107682F430760BA
:100DF00002E00768AF430760F0BD00002DE9F0474F
:100E000086B005460E460024A24600BFA146002734
:100E1000B08900B100BF2F462C8A4CF6FF70044009
:100E2000F08804432C82AC894EF6F3100440B0885D
:100E300031890843718908430443AC81AC8A4FF679
:100E4000FF400440B0890443AC8201A8FFF74CFC8A
:100E50001F48874202D1DDF810A001E0DDF80CA0A8
:100E6000A88900F4004040B10AEBCA0000EB0A1068
:100E700031684900B0FBF1F807E00AEBCA0000EB6B
:100E80000A1031688900B0FBF1F86420B8FBF0F07B
:100E900004012009642101FB1089A88900F40040A5
:100EA00040B1322000EBC900B0FBF1F000F00700C8
:100EB000044308E0322000EB09106421B0FBF1F09C
:100EC00000F00F0004432C8106B0BDE8F08700005D
:100ED0000038014001468888C0F308007047C1F31C
:100EE00008028280704700BFFEE700000FB4054B88
:100EF00010B503A9044A029800F01CF810BC5DF874
:100F000014FB000039130008E40600200048704775
:100F1000E806002002E008C8121F08C1002AFAD122
:100F200070477047002001E001C1121F002AFBD169
:100F3000704700002DE9FF4F8DB09B460F460446D9
:100F4000002606E025280BD05A460F999047641CCE
:100F5000761C20780028F5D111B03046BDE8F08F1E
:100F60000025A8460122984900E0054314F8013FF6
:100F7000203B02FA03F00842F7D120782E2817D13F
:100F800014F8010F45F004052A280ED06FF02F0247
:100F90002078A0F1300109290AD808EB880102EB7A
:100FA000410100EB0108641CF2E757F8048B641C54
:100FB00020786C280DD004DC4C2812D06A2811D17E
:100FC00004E074280DD07A280CD10AE045F400150D
:100FD00007E0617845F48015814202D1641C05F573
:100FE0008015641C2278692A45D008DC002AB3D019
:100FF000582A69D0632A10D0642A08D13BE0702AAD
:1010000067D0732A13D0752A5CD0782A5CD010463A
:101010005A460F999047761CD3E017F8040B8DF8C9
:10102000000000208DF80100E946012003E057F898
:10103000049B4FF0FF3069074FF0000501D40AE030
:101040006D1C45450DDA8542FADB19F805100029BB
:10105000F6D106E06D1C8542FCDB19F8051000296D
:10106000F8D12E4404E019F8010B5A460F99904725
:101070006D1EF8D2A5E00A200021CDE90801C5F3D4
:10108000025002280DD001CFC117031E71F10003D9
:101090000DDA4FF0000CD0EB0C006CEB01012D23AE
:1010A00008E0FF1D27F00707F7E80201EDE72B0531
:1010B00004D52B238DF8283001233BE0EB0739D0F2
:1010C0002023F7E70A2000E010200021CDE90801E5
:1010D00007E01020002145F00405CDE908014FF09C
:1010E0000808C5F3025002280FD001CF00214FF0AD
:1010F000000A2B071FD5702A0DD0DDE908C38CF03C
:10110000100C5CEA030C0CD015E0FF1D27F007075C
:10111000F7E80201EBE740228DF828204FF0010AA2
:101120000BE050EA010306D030238DF828308DF80B
:10113000292002239A46582A04D024A20DF120091E
:101140000B9209E026A2F9E7DDE90823FFF719F879
:101150000B9B9B5C09F8013D50EA0102F4D1ADEB19
:10116000090020300890680701D44FF00108089961
:10117000884502DDA8EB010000E000208046002544
:1011800006E00AA85A46405D0F9990476D1C761CF0
:101190005545F6DB04E030205A460F999047761CFF
:1011A000B8F10001A8F10108F5DC05E019F8010B20
:1011B0005A460F999047761C0899481E08900029B6
:1011C000F4DC641CC5E6000009280100303132332C
:1011D0003435363738396162636465660000000073
:1011E000303132333435363738394142434445465D
:1011F0000000000010B50446204600F0E3FA10BDE0
:1012000010B510210F48FFF7FAF940F25F50FFF7D1
:10121000E2F814200C49086007E0FF20FFF7EAFF1E
:1012200009480068401E084908600748006800280F
:10123000F3DA10210348FFF7E4F940F25F50FFF7BB
:10124000CAF810BD001401406800002000200349C6
:10125000086003490860034908607047580000208F
:101260000C0300204800002010B54FF440400A490C
:1012700008804FF48270488000208880C8800881F0
:101280004881282088810020C881072008820348DF
:10129000FFF7B1FA10BD0000406E002000300140A1
:1012A00000B585B06846FFF71FFA6FF00400FFF73E
:1012B0004FFB0020FFF793FB07490198B0FBF1F0CB
:1012C000064908704FF4FA510198B0FBF1F0044957
:1012D000088005B000BD000000127A00C80600209A
:1012E000CA06002070B504461148008800FB04F5CA
:1012F000B5F1807F01D36FF07F452846FFF782FB71
:101300000020FFF739FB0120FFF736FB00BF10205C
:10131000FFF74DFB07490870084600780128F6D111
:10132000C01EFFF729FB0020FFF726FB70BD000061
:10133000CA060020CC06002070B504460D461748AA
:101340000068012803D1E1B21548FFF7C8FD154830
:101350000068012803D1E1B21348FFF7C0FD13482C
:101360000068012803D1E1B21148FFF7B8FD00BFC2
:1013700040210F48FFF7E5FC0028F9D000BF4021CD
:101380000948FFF7DEFC0028F9D000BF40210448DF
:10139000FFF7D7FC0028F9D0204670BD400400209C
:1013A000003801404404002000440040480400206C
:1013B0000048004010B51C4800781C490870FFF731
:1013C00081F8FFF753FBFFF701FCFFF7AFFBFFF7D7
:1013D0004FFCFFF71BF9FFF763FF012000F0BCF99A
:1013E000FFF742FF5021124800F07EF94FF496605B
:1013F000FFF778FF00F09AF80EA000F0EDF9012158
:101400000E48FFF7FEF80EA0FFF770FDFEF7E8FFAD
:10141000124908600846016811A0FFF767FD13A094
:10142000FFF764FD002010BDA0040020A4040020EC
:10143000880200204E6F74657061640000100140E6
:1014400020737461727420746573742020456E7407
:1014500065724C696E65200D0A000000C40600200C
:101460006C696E65203D2025640D0A000D0A656ECD
:101470006420746573742020456E7465724C696EC7
:1014800065200D0A0000000010B540F225512048EB
:10149000FFF764FC002839D01D48FFF71BFD1D49EC
:1014A000086008460068FF2808D11B48006828B972
:1014B0000120194908600020184908601748006891
:1014C000022806D113480068A42802D1012014493B
:1014D00008601248006804280BDB104800680628E2
:1014E00007DC0C4801680D480068001F0D4A42F8EF
:1014F00020100A480068022803D1064800680A49FB
:10150000086006480068401C0449086010BD0000DF
:10151000004400407C000020A4000020580000206F
:1015200048000020AC0700200803002010B501246B
:1015300046480068401C4549086080E04348006810
:1015400001280FD114214248FFF774F941A0FFF799
:10155000CDFC3E480068401C3C4908602D20FFF748
:10156000C1FE5CE03948006802280FD114213F48D1
:10157000FFF760F93EA0FFF7B9FC34480068401C53
:10158000324908602D20FFF7ADFE48E02F48006883
:1015900003280FD110213A48FFF74CF939A0FFF783
:1015A000A5FC2A480068401C284908602D20FFF748
:1015B00099FE34E02548006804280FD11C213648E4
:1015C000FFF738F935A0FFF791FC20480068401C70
:1015D0001E4908602D20FFF785FE20E01B480068AB
:1015E00005280FD110213148FFF724F930A0FFF76B
:1015F0007DFC16480068401C144908602D20FFF748
:1016000071FE0CE011480068062808D10F480068F8
:10161000401C0E4908602D20FFF764FE002440F2B4
:1016200025512748FFF79AFB48B12548FFF752FCA0
:10163000244908600846016823A0FFF757FC002CE6
:101640007FF47CAF24A0FFF751FC10BDF003002015
:1016500098010020436865636B20636F6E6E65635D
:101660007474696F6E200D0A0000000048010020AC
:1016700053657420736420636172640D0A00000076
:1016800014010020557362206469736B206D6F75BF
:101690006E74200D0A000000D401002046657420FD
:1016A000616C6C2066696C65200D0A00C400002026
:1016B00046696C65206F70656E200D0A00000000A1
:1016C0000048004070000020526563696576653A05
:1016D00025780D0A00000000456E64207072657068
:1016E0006172650D0A00000070B504460D46AE0833
:1016F000FFF786FD10211648FEF781FF40F25F508C
:10170000FEF769FE14201349086013E011480068D1
:10171000B04207DA0F49096854F82110C843FFF7AF
:1017200069FD02E0FF20FFF765FD0A480068401EE2
:1017300008490860074800680028E7DA10210448D3
:10174000FEF75FFF40F25F50FEF745FE70BD000000
:1017500000140140680000200021164A1160164A5A
:101760001160164A1160164A1160012806D002283D
:1017700008D003280AD0042810D10BE001210D4A1B
:10178000116015E001210C4A116011E001210B4AA2
:1017900011600DE001210A4A116009E00021054AAB
:1017A0001160054A1160054A1160054A116000BFC9
:1017B00000BF70474004002044040020480400207B
:1017C0004C04002010B50446E0B2FEF767FE40F27C
:1017D0005F20FEF700FE10BD70B504460025FFF740
:1017E00043FD00203349086005E06D1C3148006866
:1017F000401C304908602F480068142808DA2D483A
:101800000068205C20B12B480068205C0A28ECD1DD
:10181000214629A0FFF76AFB10212948FEF7EFFEB9
:1018200014202449086037E022480068A8422BDAD7
:1018300040F25F50FEF7CFFD1E480068205C214952
:1018400051F8200020B91B480068205C202809D1ED
:1018500018490968615C1B4A52F82110C843FFF718
:10186000C9FC14E013480068205CC32806D1154960
:10187000D1F88010C843FFF7BDFC08E00D490968A6
:10188000605CFFF7B7FC02E0FF20FFF7B3FC0948FC
:101890000068401E07490860064800680028C3DA4F
:1018A00010210748FEF7ADFE40F25F50FEF793FDB2
:1018B00070BD0000680000207C202573200D0A0008
:1018C00000140140C404002070B5054600242946D8
:1018D0000CA0FFF70BFB00BF07E00F4850F82400F7
:1018E000A84201D100BF05E0641CFF2C02DAB4F568
:1018F000007FF2D300BF2246214608A0FFF7F6FA88
:10190000204670BD0D0A6B6579204220697320283E
:10191000256429200D0A0000C40400206173636956
:1019200069206973202563204845583A25780D0AB7
:1019300000000000004040404040404040404141E5
:101940004141414040404040404040404040404094
:10195000404040404005020202020202020202022E
:10196000020202020220202020202020202020022B
:1019700002020202020290909090909010101010BB
:101980001010101010101010101010101010101057
:1019900002020202020288888888888808080808EB
:1019A00008080808080808080808080808080808B7
:1019B000020202024000000035190008DC1900088C
:1019C00000000020EC0600007A030008C41B000899
:1019D000EC060020947A0000240F00080130022F4A
:1019E00016021F07022B05325732AB9A270CDA3347
:1019F0001CDA32106960A93CA910DA3410DA3D1003
:101A0000DA3110DA3B103236DA01143215DA031407
:101A10005A2F04012C693C5A060CA914323A0A11B7
:101A2000802C6964E9780A112A2C5A02A8DA9818DD
:101A30000A1D39902920DAFF045A010429545A0456
:101A40009C290829103243320732253211321E5A9E
:101A50001504290C0A111350093E049A1D602974BB
:101A60005A0FA032195A171469100110694432A292
:101A7000320B3216321432103253324C3252324957
:101A8000322032563231322E9A304032A67203DA88
:101A9000085CA91C022B04720532579AAB44011C46
:101AA000692C0A112D145A2F0432545A45E0290C7E
:101AB00001105A0104012018210A0D5350492053E6
:101AC00053543235564630313642204578616D7078
:101AD0006C653A205468697320032921080B184467
:101AE000454D4F2C203939393801113249021BC379
:101AF000A9900A79FF0441322E3210323C322B3247
:101B000029322F32043237323E3221322C32203207
:101B1000243228320C32343202320632123232325D
:101B20002232163236322632145A31243223323FD0
:101B3000321C323932483241324332493259325101
:101B4000324B325B3253324A325A32453247324D8F
:101B5000325D3255324F325F3257324E325E32652D
:101B60003267327A326D327D32753277324C327E64
:101B7000326E5A7888320132033209321932113208
:101B80000B321B3213320A321A32053207320D324F
:101B90001D3215320F321F3217320E321E322532ED
:101BA00027323A322D323D3235322A3233323B320D
:101BB000180210FF2D0102030404B00906070809EA
:041BC000020406080D
:0400000508000131BD
:00000001FF
